:03000000020C17D8
:0C0C1700787FE4F6D8FD75812002096B9F
:1008CA008B0A8A0B890C8C0D8D0EC3E50D648094FE
:1008DA0080500FC3E4950EF50EE4950DF50D742DB9
:1008EA008008AB0AAA0BA90C742012082DAE0DAF12
:1008FA000E7C007D6412083FEF2430FFAB0A050C22
:10090A00E50C7002050BF9AA0BEF12082DAE0DAF1C
:10091A000E7C007D6412083F8C0D8D0EAE0DAF0E5D
:10092A007C007D0A12083FEF2430FFAB0A050CE574
:10093A000C7002050BF9AA0BEF12082DAE0DAF0EC3
:10094A007C007D0A12083F8C0D8D0EE50E2430FFC7
:10095A00AB0A050CE50C7002050BF9AA0BEF0208AD
:01096A002D5F
:100B0C00E4FDFCC3ED9FEC9E5015E4FBFA0BBB001F
:0F0B1C00010AEB64794A70F50DBD00010C80E40D
:010B2B0022A7
:100A45007D017F38120BB27D017F08120BB27D014B
:100A55007F01120BB27D017F06120BB27D017F0C67
:100A6500120BB27B41E4FDFF120B2C7B477D01E4A9
:040A7500FF020B2C45
:100BC7007580FFC290D29100D2A50000E58020E792
:040BD700FBC2A52296
:100BB200ED6003120BC7C290C291008F8000D2A5D4
:050BC2000000C2A522A5
:100BDB00120BC7D290C291008F8000D2A50000C229
:020BEB00A52241
:100B2C00AE07AC0353050153060FED6003430640BB
:0F0B3C00430680AF06E4FD120BB2AF04020BDBE1
:0A0A07008F0A8D0B8B0C8A0D890EEF
:100A1100E4F511530B01530A0FE5101510AE0F70D9
:100A210002150F4E601DAB0CAA0DA90E8511827522
:100A31008300120800FBAD0BAF0A120B2C05110548
:030A41000A80D652
:010A4400228F
:100B6900000000000000000000000000000000007C
:090B790000000000000000002251
:0F0BED00D2A0D2A1120B69C2A0120B69C2A12221
:0C0C2300C2A0D2A1120B69D2A0020B6982
:0E0BFC00A20092A0D2A1120B69C2A1020B6945
:0D0C0A00D2A1120B69A2A0C2A1120B692297
:100B8200E4FEEF25E0FF92A0D2A1120B69C2A112EE
:090B92000B690EBE08EC020C0A0E
:100B4B00E4FFD2A0FEEF25E0FFD2A1120B69A2A019
:0D0B5B00E4334207C2A1120B690EBE08E888
:010B6800226A
:100B9B00AC07120BED7FD0120B82AF04120B82AF9E
:070BAB0005120B82020C236E
:020AA400AD079C
:100AA600120BED7FD0120B82AF05120B82120BEDEB
:100AB6007FD1120B82120B4BD200120BFC120C23AD
:010AC600220D
:100AEA00E4FD7F6B120B9B7D077F19120B9B1D7F09
:100AFA001A120B9B7D187F1B120B9B7D017F1C0218
:020B0A000B9B43
:020AC700AC077A
:100AC900120AA4AB07EC04FF120AA4AD07AF03EFA7
:100AD9003395E0EFFEED3395E0FCE42DFFEE3CFEAF
:010AE90022EA
:100A79008D088B097C007D4012083F7B007A007944
:100A890014AD07AC061208CA7B007A007914750FF9
:0B0A990000751004AD09AF08020A0749
:10096B007FF47E01120B0C120A45120AEA7F967E67
:10097B0000120B0C7F3B120AC7E4FB7D02120A79B3
:10098B007F3D120AC7E4FB7D07120A797F3F120AEB
:10099B00C7E4FB7D0C120A797F43120AC77B017DEA
:1009AB0002120A797F45120AC77B017D07120A7969
:1009BB007F47120AC77B017D0C120A797F3B120A13
:1009CB00C7D3EF943CEE6480948040047A0180029C
:1009DB007A007F43120AC7D3EF9428EE6480948089
:1009EB0040047F0180027F00EF5A6004C2948002B2
:0C09FB00D2947F647E00120B0C02097F76
:10080000BB010CE58229F582E5833AF583E02250AD
:1008100006E92582F8E622BBFE06E92582F8E222F7
:0D082000E58229F582E5833AF583E4932211
:10082D00BB010689828A83F0225002F722BBFE01AA
:02083D00F322A4
:10083F00C2D5EC30E709B2D5E4C39DFDE49CFCEED4
:10084F0030E715B2D5E4C39FFFE49EFE120875C3CF
:10085F00E49DFDE49CFC800312087530D507C3E4CA
:06086F009FFFE49EFE2243
:10087500BC000BBE0029EF8DF084FFADF022E4CC67
:10088500F875F008EF2FFFEE33FEEC33FCEE9DEC30
:10089500984005FCEE9DFE0FD5F0E9E4CEFD22ED76
:1008A500F8F5F0EE8420D21CFEADF075F008EF2FC0
:1008B500FFED33FD4007985006D5F0F222C398FDB1
:0508C5000FD5F0EA224E
:00000001FF
