:020000040800F2
:100000003004002025070008E1020008E302000890
:10001000E7020008EB020008EF0200080000000001
:10002000000000000000000000000000F3020008D3
:10003000F502000800000000F7020008F9020008BD
:100040003F0700083F0700083F0700083F07000878
:100050003F0700083F0700083F0700083F07000868
:100060003F0700083F0700083F0700083F07000858
:100070003F0700083F0700083F0700083F07000848
:100080003F0700083F0700083F0700083F07000838
:100090003F0700083F0700083F0700083F07000828
:1000A0003F0700083F0700083F0700083F07000818
:1000B0003F0700083F0700083F0700083F07000808
:1000C0003F0700083F0700083F0700083F070008F8
:1000D0003F0700083F0700083F0700083F070008E8
:1000E0003F0700083F0700083F0700083F070008D8
:1000F0003F0700083F0700083F0700083F070008C8
:100100003F0700083F0700083F0700083F070008B7
:100110003F0700083F0700083F0700083F070008A7
:100120003F0700083F0700083F0700083F07000897
:10013000DFF80CD001F07EFB0048004745010008C5
:100140003004002000F0DAF800F024FA00F0BEFAE3
:100150003EE0472000F0D0FA1E49086008460068DB
:10016000B0F5004F04DD08460068A0F58030086057
:100170003B2000F0C1FA0446014617A001F06CFBD9
:100180003D2000F0B9FA044601461EA001F064FBD0
:100190003F2000F0B1FA0446014625A001F05CFBC7
:1001A000432000F0A9FA044601462CA001F054FBBC
:1001B000452000F0A1FA0446014633A001F04CFBB3
:1001C000044801683BA001F047FB642000F0A3F95C
:1001D000BFE70000000000200D0A2D2D2D2D2D2D34
:1001E0002D2D2DBCD3CBD9B6C858D6E1D4ADCABCC1
:1001F000CAFDBEDD2D2D2D2D2D2D2D2D2D2564205F
:100200000D0A00000D0A2D2D2D2D2D2D2D2D2DBC6F
:10021000D3CBD9B6C859D6E1D4ADCABCCAFDBEDD70
:100220002D2D2D2D2D2D2D2D2D2564200D0A000079
:100230000D0A2D2D2D2D2D2D2D2D2DBCD3CBD9B629
:10024000C85AD6E1D4ADCABCCAFDBEDD2D2D2D2DB8
:100250002D2D2D2D2D2564200D0A00000D0A2D2D8C
:100260002D2D2D2D2D2D2DCDD3C2DDD2C758D6E16C
:10027000D4ADCABCCAFDBEDD2D2D2D2D2D2D2D2DAD
:100280002D2564200D0A00000D0A2D2D2D2D2D2D5C
:100290002D2D2DCDD3C2DDD2C759D6E1D4ADCABCE8
:1002A000CAFDBEDD2D2D2D2D2D2D2D2D2D256420AE
:1002B0000D0A00000D0A2D2D2D2D2D2D2D2D2DCDAE
:1002C000D3C2DDD2C75AD6E1D4ADCABCCAFDBEDDA9
:1002D0002D2D2D2D2D2D2D2D2D2564200D0A0000C9
:1002E000704700BFFEE700BFFEE700BFFEE700BFAC
:1002F000FEE77047704770477047000000B585B053
:10030000012144F2040000F02AFF4FF40070ADF820
:10031000100018208DF8130003208DF8120004A996
:10032000744800F071FA4FF48060ADF810000420BA
:100330008DF8130004A96F4800F066FA4FF4E1301D
:1003400000900020ADF80400ADF80600ADF80800FC
:10035000ADF80C000C20ADF80A006946664800F0C4
:10036000ACFF0121644801F034F805B000BD70B560
:1003700004460D46E1B2604801F09BF800BF5E48BC
:10038000008810F0800FFAD0204670BDF0B503460B
:100390000D461646002729460A2E03D00020087075
:1003A0002846F0BD33B9302001F8010B0020087059
:1003B0002846F6E7002B03DA2D2001F8010B5B42FB
:1003C00042F210720DE093FBF2F404B937B104F17C
:1003D000300001F8010B04FB123301270A2092FBC5
:1003E000F0F2002AEFDC002008702846D9E70FB4AD
:1003F00070B586B006460CA8019073E00B980078A3
:100400005C281CD10B98401C0B9000786E2809D0FA
:1004100072280FD10D21304601F04BF80B98401C8B
:100420000B900BE00A21304601F043F80B98401C7A
:100430000B9003E00B98401C0B9000BF4BE00B9817
:100440000078252840D10B98401C0B900078642838
:1004500018D0732833D1019810C801900BE021788F
:10046000304601F026F800BF4021304601F08FF8F9
:100470000028F9D0641C20780028F0D10B98401C8B
:100480000B9020E0019820C801900A2202A928467A
:10049000FFF77CFF02AC0BE02178304601F009F851
:1004A00000BF4021304601F072F80028F9D0641CEA
:1004B00020780028F0D10B98401C0B9003E00B989B
:1004C000401C0B9000BF06E00B9810F8011B0B902E
:1004D000304600F0EEFF00BF4021304601F057F8F3
:1004E0000028F9D00B980078002887D106B070BC9E
:1004F0005DF814FB0008014000380140014605E0AA
:10050000002001E0421CD0B20A28FBDB0A00A1F166
:100510000101F5D1704710B5044603E04FF47A703D
:10052000FFF7ECFF2000A4F10104F7D110BD00009B
:1005300008B50121082000F012FE0121480500F055
:100540001BFEC020ADF8000003208DF802001C2027
:100550008DF8030069466F4800F056F908BD1FB5D5
:100560000020ADF804004FF48060ADF80A000001EF
:10057000ADF80C004CF2503000906946664800F02F
:10058000A8FA0121644800F022FB0121624800F032
:100590005AFB1FBD10B5FFF7CBFFFFF7E0FF10BD03
:1005A00070B504460D4601215B4800F034FB00BFE6
:1005B0005A49594800F00EFC0028F9D00022D021F9
:1005C000554800F081FB00BF5549534800F002FC3C
:1005D0000028F9D02146504800F070FB00BF504978
:1005E000891C4D4800F0F6FB0028F8D029464A48FF
:1005F00000F064FB00BF4A49891C474800F0EAFB51
:100600000028F8D00121444800F011FB70BD70B5FE
:10061000044600BF4FF400313F4800F0FDFB0028C6
:10062000F8D101213C4800F0F6FA00BF3B493A48B6
:1006300000F0D0FB0028F9D00022D021364800F08D
:1006400043FB00BF3649344800F0C4FB0028F9D012
:100650000121314800F0BBFA21462F4800F02EFB63
:1006600000BF2F49891C2C4800F0B4FB0028F8D0AB
:100670000121294800F0CFFA00BF2849264800F0A0
:10068000A9FB0028F9D00122D021234800F01CFB4F
:1006900000BF2249491C204800F09CFB0028F8D0EC
:1006A00000211D4800F0CFFA01211B4800F0BFFADD
:1006B00000BF1A493F31184800F08CFB0028F8D0E1
:1006C000154800F0FDFA0546284670BD10B500211A
:1006D0006B20FFF765FF07211920FFF761FF062157
:1006E0001A20FFF75DFF18211B20FFF759FF01219A
:1006F0001C20FFF755FF10BD70B504462046FFF7DC
:1007000086FF0546601CC0B2FFF781FF064606EB78
:10071000052070BD000C01400054004001000300A2
:10072000820007000648804706480047FEE7FEE7CC
:10073000FEE7FEE7FEE7FEE7FEE7FEE7FEE7FEE791
:10074000091700083101000810B50446CA48844260
:1007500008D10121042000F01CFD0021042000F03C
:1007600018FD46E0C548844208D10121082000F068
:1007700010FD0021082000F00CFD3AE0C048844242
:1007800008D10121102000F004FD0021102000F00C
:1007900000FD2EE0BB48844208D10121202000F05A
:1007A000F8FC0021202000F0F4FC22E0B64884424E
:1007B00008D10121402000F0ECFC0021402000F095
:1007C000E8FC16E0B148844208D10121802000F005
:1007D000E0FC0021802000F0DCFC0AE0AC48844210
:1007E00007D10121801500F0D4FC0021A01500F0F4
:1007F000D0FC10BD10B50121084600F0CAFC002154
:10080000012000F0C6FC10BD2DE9F0410246002594
:100810000026002000230024002791F803C00CF0DC
:100820000F0591F803C01CF0100F03D091F802C01F
:100830004CEA0505B1F800C01CF0FF0F31D0146878
:1008400000202BE04FF0010C0CFA00F3B1F800C0CF
:100850000CEA03069E4220D183004FF00F0C0CFAE5
:1008600003F7BC4305FA03FC4CEA040491F803C007
:10087000BCF1280F06D14FF0010C0CFA00FCC2F8B5
:1008800014C00AE091F803C0BCF1480F05D14FF045
:10089000010C0CFA00FCC2F810C0401C0828D1D38F
:1008A0001460B1F800C0BCF1FF0F34DD54680020C3
:1008B0002EE000F1080C4FF0010808FA0CF3B1F833
:1008C00000C00CEA03069E4221D183004FF00F0CBA
:1008D0000CFA03F7BC4305FA03FC4CEA040491F854
:1008E00003C0BCF1280F05D100F1080C08FA0CF880
:1008F000C2F8148091F803C0BCF1480F07D100F191
:10090000080C4FF0010808FA0CF8C2F81080401CDF
:100910000828CED35460BDE8F0814FF6FF71018006
:10092000022181700421C170704702460020936843
:100930000B4201D0012000E000207047014688688A
:1009400080B2704702460020D3680B4201D00120DC
:1009500000E0002070470146C86880B2704701611E
:100960007047416170470AB1016100E04161704721
:10097000C16070474FF480320A43826181618261B5
:1009800082698269704702460020424B18684FF620
:100990008073184040EA021008433E4B18607047CD
:1009A0003D49C8617047F0B50A4600230024002184
:1009B000002500F00046B6F1004F02D1354EF16936
:1009C00001E0344E7168C0F3034583B200F4401671
:1009D000B6F5401F08D121F070612E4E766826F0E2
:1009E00070662C4F7E6012E000F48016B6F5801F12
:1009F00006D1032606FA05F4A14341F0706106E032
:100A0000460D360103FA06F6B14341F0706122B19A
:100A1000460D360103FA06F6314300F00046B6F102
:100A2000004F02D11B4EF16101E01A4E7160F0BD22
:100A300030B500228B071C0F0F2303FA04F2154B6D
:100A400008338C1053F824309343124C08348D1023
:100A500044F8253023468C1053F824308C07240F9B
:100A600000FA04F423430B4C08348D1044F825306D
:100A700030BD0A490860704700080140000C014081
:100A8000001001400014014000180140001C01400A
:100A9000002001400000014000002042DC00204214
:100AA00010B50446F648844209D10121480500F0FA
:100AB0007DFB00214FF4001000F078FB08E00121DD
:100AC000880500F073FB00214FF4800000F06EFBFE
:100AD00010BD2DE9F04385B004460D460026B14611
:100AE0000427DFF8A083A6884FF6C0710E40684641
:100AF00000F0C8FADDF80880E348B8FBF0F01FFA10
:100B000080F946EA0906A68020884FF6FE71084063
:100B100020800026DD49286888420CD828684000DB
:100B2000B8FBF0F087B2042F00DA04273E4309F146
:100B30000100208427E0E888A0F53F41FF3906D175
:100B4000286800EB4000B8FBF0F087B209E02868A5
:100B500000EBC00101EB0010B8FBF0F087B247F4E6
:100B600080473805000D01D147F0010747F40040E8
:100B700006434FF4967009FB00F04FF47A7190FB36
:100B8000F1F0401C2084A683208840F001002080E2
:100B900026884FF6F5310E40A88869890843064338
:100BA0002680A88929890843208105B0BDE8F08303
:100BB00041F288310160002181804BF6FF71C180D4
:100BC0000021018141814FF480418181704721B131
:100BD000028842F00102028004E002884FF6FE73B0
:100BE0001A400280704721B1828842F400628280FC
:100BF00004E082884FF2FF731A408280704721B16F
:100C0000828842F48052828004E082884EF6FF732C
:100C10001A408280704721B1028842F480720280BB
:100C200004E002884FF6FF631A400280704721B14A
:100C3000028842F40072028004E002884FF6FF53FB
:100C40001A400280704721B1028842F4806202801B
:100C500004E002884FF6FF331A40028070470A46CC
:100C6000002181894FF60173194002F0FE031943F8
:100C70008181704721B1828942F00102828104E0C2
:100C800082894FF6FE731A408281704721B1028833
:100C900042F04002028004E002884FF6BF731A401F
:100CA0000280704710B51AB183880B43838004E03B
:100CB0008388CC43A4B22340838010BD0182704757
:100CC0000146088AC0B2704712B141F0010102E04A
:100CD0004FF6FE7319400182704702460023134607
:100CE0000B441888704721B1028842F40042028008
:100CF00003E00288C2F30E0202807047B1F5006F74
:100D000004D1028842F40062028004E002884FF2BB
:100D1000FF731A4002807047B1F5005F04D102886A
:100D200042F40052028004E002884DF6FF731A403C
:100D30000280704721B1028842F48052028004E0B0
:100D400002884EF6FF731A4002807047B1F5006FBB
:100D500004D1028842F40062028004E002884FF26B
:100D6000FF731A400280704721B1028842F02002CE
:100D7000028004E002884FF6DF731A400280704759
:100D80000146088B0012704721B1028842F0100220
:100D9000028004E002884FF6EF731A400280704729
:100DA00021B9028842F08002028004E002884FF6F6
:100DB0007F731A4002807047B1F5804F05D0828B57
:100DC0004BF6FF731A40828303E0828B42F4804229
:100DD0008283704770B5024600240025002300205E
:100DE000958A138B1B0445EA030626F07F4404EA28
:100DF00001068E4201D1012000E0002070BD10B537
:100E000001460020002300228B8A0A8B120443EA49
:100E1000020424F07F4010BD30B5034600200024BA
:100E200000221A460C0F21F07F410CB1143201E070
:100E3000090C183215680D4201D0012000E0002095
:100E400030BD002221F07F42D3438382704730B50A
:100E5000024600200023948801F0E06504EA15436F
:100E600021F07F41948A0C4202D00BB1012000E0B6
:100E7000002030BD002221F07F42D343838270479F
:100E80000054004000127A0040420F00A08601008A
:100E9000DB48006840F00100D94908600846406816
:100EA000D8490840D649486008460068D6490840F5
:100EB000D34908600846006820F48020086008468E
:100EC000406820F4FE0048604FF41F0088607047BF
:100ED000CB49096821F48031C94A1160114609687B
:100EE00021F480211160B0F5803F03D0B0F5802F50
:100EF0000ED106E0C249096841F48031C04A116050
:100F000007E0BF49096841F4A021BD4A116000E033
:100F100000BF00BF704710B501460022002300202B
:100F20004A11012A02D1B64C236806E0022A02D1F6
:100F3000B34C236A01E0B24C636A01F01F02012442
:100F400094401C4201D0012000E0002010BD70B58B
:100F500000240025002600BF3120FFF7DCFF0646F5
:100F6000641CB4F5A06F01D0002EF5D03120FFF73E
:100F7000D2FF08B1012500E00025284670BD0146DA
:100F800000209F4A106820F0F80040EAC10010607D
:100F900070479E490860704702460020984B586889
:100FA00020F47C1042EA01031843954B58607047C7
:100FB00096490866704701460020914A506820F023
:100FC00003000843506070478D48406800F00C00F3
:100FD0007047014600208A4A506820F0F00008431C
:100FE0005060704701460020854A506820F4E06058
:100FF00008435060704701460020814A506820F441
:10100000605040EAC1005060704729B17C4A527A72
:1010100002437B4B5A7206E0794A527AC343DBB2F1
:101020001A40774B5A7270477949086070470146F9
:101030000020734A506820F44040084350607047D5
:101040000021744A11706E4A82F82010012802D0E3
:10105000042808D103E001216E4A117004E0052143
:101060006C4A117000E000BF00BF70476A49086019
:1010700070476349096A0143614A116270476749D1
:101080000860704730B500210022002400235C4D29
:101090006D6805F00C0121B1042905D0082923D180
:1010A00005E05F4D056022E05D4D05601FE0544D99
:1010B0006D6805F47012524D6D6805F48034022598
:1010C00005EB92421CB9574D554305600BE04C4D62
:1010D0006D6815F4003F03D0524D5543056002E0A2
:1010E0004F4D5543056002E04D4D056000BF00BF08
:1010F000434D6D6805F0F00109094B4D6B5C0568C7
:10110000DD4045603E4D6D6805F4E061090A464DDD
:101110006B5C4568DD408560394D6D6805F4605154
:10112000C90A414D6B5C4568DD40C560344D6D6852
:1011300005F44041890B3D4D6B5CC568B5FBF3F58B
:10114000056130BD29B12E4A526902432C4B5A61C8
:1011500004E02B4A52698243294B5A61704729B1F6
:10116000274A92690243264B9A6104E0244A926915
:101170008243234B9A61704729B1214AD2690243C5
:101180001F4BDA6104E01E4AD26982431C4BDA61CC
:10119000704729B11A4AD2680243194BDA6004E059
:1011A000174AD2688243164BDA60704729B1144A55
:1011B00012690243124B1A6104E0114A1269824318
:1011C0000F4B1A6170471A49086070470F49C8648D
:1011D00070470B49C87170470948406A40F08070F9
:1011E00007494862704701460020054A92680A4252
:1011F00001D0012000E0002070470149887270474B
:10120000001002400000FFF8FFFFF6FE000042421F
:10121000D800424220100240800442423C04424234
:1012200000127A0000093D00040000201400002094
:101230004004424210B50446FC48844209D10121D1
:101240008803FFF7A6FF00214FF48040FFF7A1FFBE
:1012500032E0F748844209D101214804FFF7A6FF94
:1012600000214FF40030FFF7A1FF25E0F148844250
:1012700009D101218804FFF799FF00214FF4802054
:10128000FFF794FF18E0EC48844209D10121C8041B
:10129000FFF78CFF00214FF40020FFF787FF0BE0E2
:1012A000E648844208D101210805FFF77FFF0021AD
:1012B0004FF48010FFF77AFF10BD2DE9F04786B09C
:1012C00005460E460024A24600BFA1460027B0896D
:1012D00000B100BF2F462C8A4CF6FF700440F08806
:1012E00004432C82AC894EF6F3100440B088318957
:1012F0000843718908430443AC81AC8A4FF6FF4030
:101300000440B0890443AC8201A8FFF7BBFEC74884
:10131000874202D1DDF810A001E0DDF80CA0A88919
:1013200010F4004F08D00AEBCA0000EB0A10316835
:101330004900B0FBF1F807E00AEBCA0000EB0A1025
:1013400031688900B0FBF1F86420B8FBF0F00401CB
:101350002009642101FB1089A88910F4004F08D0EE
:10136000322000EBC900B0FBF1F000F007000443AD
:1013700008E0322000EB09106421B0FBF1F000F02E
:101380000F0004432C8106B0BDE8F0874FF41651DE
:10139000016000218180C18001810C2141810021F7
:1013A0008181704710B502460020108A4FF2FF037A
:1013B00018400B884C8823438C882343CC882343D4
:1013C0001843108210BD0021018041808180C180BE
:1013D000704721B1828942F40052828104E08289FF
:1013E0004DF6FF731A4082817047F0B50346002422
:1013F000002600250020A1F510676A3F00D100BF3C
:101400001846C1F3421401F01F06012707FA06F53A
:10141000012C01D10C3004E0022C01D1103000E08D
:1014200014301AB107682F43076002E00768AF4322
:101430000760F0BD10B51AB1838A0B43838204E0C4
:10144000838ACC43A4B22340838210BD028A4FF624
:10145000F0731A400282028A0A430282704782892C
:101460004FF2FF731A40828182890A43828170475A
:1014700021B1828942F00202828104E082894FF622
:10148000FD731A4082817047028A4FF6DF731A405B
:101490000282028A0A430282704721B1028A42F420
:1014A0008042028204E0028A4BF6FF731A400282F5
:1014B0007047C1F308028280704701468888C0F3F4
:1014C00008007047818941F0010181817047028BDA
:1014D000D2B20283028B42EA012202837047028B5E
:1014E00002F47F420283028B0A430283704721B1D8
:1014F000828A42F02002828204E0828A4FF6DF7301
:101500001A408282704721B1828A42F010028282A0
:1015100004E0828A4FF6EF731A408282704721B14D
:10152000828A42F00802828204E0828A4FF6F773D0
:101530001A408282704721B1828942F4004282813E
:1015400003E08289C2F30E028281704721B1828A50
:1015500042F40062828204E0828A4FF2FF731A40F2
:1015600082827047828A4FF6FB731A408282828A97
:101570000A438282704721B1828A42F0020282824B
:1015800004E0828A4FF6FD731A4082827047024659
:101590000020B1F5007F00D100BF13880B4201D0BD
:1015A000012000E00020704701F40072B2F5007FD6
:1015B00000D100BFCA430280704770B502460024C4
:1015C000002300250020A1F510666A3E00D100BF6F
:1015D000C1F3421501F01F03012606FA03F3012DA2
:1015E00002D19689334006E0022D02D1168A33409B
:1015F00001E0968A33400C12012606FA04F416889C
:10160000344013B10CB1012000E0002070BD10B5D2
:1016100000220023A1F510646A3C00D100BF0A1229
:1016200001249440A3B2DC43048010BD0038014083
:101630000044004000480040004C00400050004082
:1016400000210020674A126842F48032654B1A601C
:1016500000BF644A126802F40030491C10B9B1F5A9
:10166000A06FF6D15F4A126812F4003F01D001204A
:1016700000E00020012842D15B4A126842F01002CB
:10168000594B1A601A46126822F003021A601A4671
:10169000126842F002021A60524A5268514B5A6074
:1016A0001A4652685A601A46526842F480625A607A
:1016B0001A46526822F47C125A601A46526842F462
:1016C000E8125A601A46126842F080721A6000BF2F
:1016D000444A126812F0007FFAD0424A526822F05F
:1016E0000302404B5A601A46526842F002025A60A6
:1016F00000BF3C4A526802F00C02082AF9D1704738
:1017000010B5FFF79DFF10BD10B53648006840F0DA
:1017100001003449086008464068344908403149AE
:10172000486008460068324908402E49086008466B
:10173000006820F4802008600846406820F4FE001D
:1017400048604FF41F008860FFF7DAFF4FF0006039
:101750002849086010BD10B5002100200022214B4F
:101760005B6803F00C0121B1042906D0082928D1B7
:1017700007E0214B214C236027E01F4B1F4C2360C7
:1017800023E0184B5B6803F47010164B5B6803F49E
:101790008032022303EB904022B9194B4343174C8C
:1017A00023600DE00F4B5B6813F4003F04D0144B33
:1017B0004343124C236003E00F4B43430F4C236021
:1017C00003E00D4B0D4C236000BF00BF054B5B6871
:1017D000C3F303130B4CE15C084B1B68CB40074C75
:1017E000236010BD00100240002002400000FFF8FE
:1017F000FFFFF6FE08ED00E000127A00180000205E
:1018000000093D001C00002030B50B4601460020B9
:101810002022012409E021FA02F59D4205D303FAB2
:1018200002F5491B04FA02F52844151EA2F1010233
:10183000F1DC30BD064C074D06E0E06840F00103E6
:1018400094E8070098471034AC42F6D3FEF774FCD6
:10185000EC1900080C1A00080FB4054B10B503A9C9
:10186000044A029800F018F810BC5DF814FB000060
:101870006F0300082C00002002E008C8121F08C1F6
:10188000002AFAD170477047002001E001C1121F01
:10189000002AFBD1704700002DE9FF4F89B00446B4
:1018A0009B46002597E0252832D10027641C4E4A2C
:1018B000B84601212378203B01FA03F0104202D000
:1018C0000743641CF6E720782E2819D114F8010F7D
:1018D00047F004072A280ED06FF02F022078A0F1DD
:1018E000300109290CD808EB880102EB410100EB1B
:1018F0000108641CF2E70A98641C50F8048B0A90F3
:101900002078F0B3642808D0692806D075281FD045
:101910005A460B9990476D1C5CE00A994FF00A09F2
:1019200001C90A91002804DAC0F100004FF02D012E
:1019300002E0390504D52B218DF82010012104E0A7
:10194000F90701D02021F7E700218A4608AE0CE014
:101950000A994FF00A0901C90A91F5E74946FFF7CC
:1019600053FF01F1300106F8011D0028F6D1ADEB5F
:10197000060000F12009780701D44FF0010800208B
:1019800000E02CE041464A46C84500DD881A804602
:10199000002706E008A85A46C05D0B9990476D1CC9
:1019A0007F1C5745F6DB04E030205A460B999047E0
:1019B0006D1CB8F10001A8F10108F5DC05E016F88E
:1019C000010B5A460B9990476D1CB9F10001A9F122
:1019D0000109F4DC641C207800287FF464AF0DB0AA
:1019E0002846BDE8F08F0000092801000C1A000805
:1019F0000000002030000000781800083C1A0008A1
:101A000030000020000400008818000800000000DA
:101A10000000000001020304010203040607080994
:101A20000204060800A24A040000000000000000B2
:0C1A300001020304060708090000000082
:0400000508000131BD
:00000001FF
